:020000040800F2
:10000000D0060020890100080D170008851500089A
:1000100089150008190300082117000800000000D6
:10002000000000000000000000000000151700089C
:100030001D03000800000000111700081917000830
:10004000A3010008A3010008A3010008A301000800
:10005000A3010008A3010008A3010008A3010008F0
:10006000A3010008A3010008A3010008A3010008E0
:10007000A3010008A3010008A3010008A3010008D0
:10008000A3010008A3010008A3010008A3010008C0
:10009000A3010008A3010008A3010008A3010008B0
:1000A000A3010008A3010008A3010008A3010008A0
:1000B000A3010008A3010008A3010008A301000890
:1000C000A3010008A3010008A3010008A301000880
:1000D000A3010008A3010008A3010008A301000870
:1000E000A3010008A3010008A301000800F002F822
:1000F00000F03AF80AA090E8000C82448344AAF188
:100100000107DA4501D100F02FF8AFF2090EBAE885
:100110000F0013F0010F18BFFB1A43F0010318473B
:100120001C3700003C370000103A24BF78C878C163
:10013000FAD8520724BF30C830C144BF04680C60ED
:10014000704700000023002400250026103A28BF35
:1001500078C1FBD8520728BF30C148BF0B60704739
:100160001FB51FBD10B510BD00F044F81146FFF7D4
:10017000F7FF01F0D7FA00F062F803B4FFF7F2FFDF
:1001800003BC00F065F800000948804709480047B3
:10019000FEE7FEE7FEE7FEE7FEE7FEE7FEE7FEE737
:1001A000FEE7FEE704480549054A064B7047000094
:1001B0001D170008ED000008D0000020D006002028
:1001C000D0020020D002002070477047704710B561
:1001D00000F008F8006810BD10B5044600F002F801
:1001E000046010BD004870471000002000487047B0
:1001F000100000207546FFF7F9FFAE46050069467E
:10020000534620F00700854618B020B5FFF7CAFF17
:10021000BDE820404FF000064FF000074FF0000807
:100220004FF0000BAC46ACE8C009ACE8C009ACE844
:10023000C009ACE8C00921F007018D46704710B530
:100240000446AFF300802046BDE81040FFF795BF9D
:1002500001491820ABBEFEE72600020070470000EF
:10026000B0B582B004460020019021688A68D207A8
:100270004FD1886840F00100886040F20800C2F267
:10028000000000684DF68361C4F21B31A0FB010140
:10029000880C01900198A0B1019801380190019853
:1002A00078B1019801380190019850B10198013856
:1002B0000190019828B10198013801900198002817
:1002C000EAD100F0D3FC21688968C9071CD1054632
:1002D00003E000BF8068C0071AD100F0C7FC411BD3
:1002E00020680329F6D38168C907F3D1A06A40F0DA
:1002F0001000A062E06A40F00100E062002084F893
:100300002400012002B0B0BD002002B0B0BD00BF8B
:10031000002002B0B0BD0000FEE700007047000002
:1003200010B581B00022009290F82420012A03D158
:100330000221084601B010BD4B680122062B80F84F
:10034000242017D8D0F800C003EB83035A1F1F23C3
:10035000DCF834E003FA02F40B682EEA040403FA32
:1003600002F22243CCF83420092B03EB430219D9C3
:1003700036E000BFD0F800C00C2B03EB83021DD881
:10038000233A1F23DCF830E003FA02F40B682EEA6C
:10039000040403FA02F22243CCF83020092B03EBC9
:1003A00043021DD8DCF81030072489689440A34329
:1003B00091401943CCF81010002130E0413A1F233E
:1003C000DCF82CE003FA02F40B682EEA040403FACA
:1003D00002F22243CCF82C20092B03EB4302E1D993
:1003E000DCF80CE01E3A0724896894402EEA0404E5
:1003F000914023F001022143102ACCF80C100DD1BA
:1004000042F20841C4F20101A1F1080294450DD065
:10041000816A41F020018162012100E00021002277
:1004200080F82420084601B010BD00BF0A681202FF
:1004300030D40A68102B42F400020A602CD140F23A
:100440000801C2F2000109684DF68362C4F21B3252
:10045000A1FB0212910C01EB81014900009100996E
:10046000E1B10099013900910099C9B100990139B0
:1004700000910099B1B1009901390091009999B1A9
:10048000009901390091009900294FF00001E8D14D
:10049000C5E700BF0021C2E70021C0E70021BEE799
:1004A0000021BCE70021BAE70021B8E70068C06C72
:1004B00070470000B0B5002800F0A8800446806AAC
:1004C00020B121688868C0070BD114E00020E062E9
:1004D00084F82400204600F09BF821688868C00753
:1004E00009D0886820F00100886000F0BFFB216817
:1004F0008A68D20726D1A06AC0063AD4A06A41F21F
:10050000021290430230A062E069D4E9013240EA6D
:10051000030C531EB3FA83F35D091346B2F5807FD3
:1005200018BF2B02207D257B01284CEA450030D1E5
:1005300035B3A56A45F02005A562E56A45F00105D9
:10054000E56226E0054602E08868C007D3D000F0E7
:100550008DFB401B21680328F6D38868C007F3D0C1
:10056000A06A40F01000A062E06A40F00100E06282
:10057000A06AA06A40F01000A0620120B0BD00BFD8
:10058000D4F818C04EF60005CFF6FF7505EB4C35D4
:100590002B434D68B2F5807F25F4694543EA050396
:1005A0004B608B684FF2FD75CFF6E17503EA0503EA
:1005B00043EA00038B6001D0012A07D1226900239E
:1005C000CFF6F07303EB025201E000BF0022CB6ACA
:1005D00023F470031A43CA62896840F6FE62CFF6BC
:1005E0001F721140814207D10020E062A16A0122FE
:1005F00062F30101A162B0BDA06A40F0100020F0DA
:100600000200A062E06A40F00100E0620120B0BD9B
:1006100080B586B0014640F60000C4F201000968CA
:1006200000F5E05291424FF00001CDE9041101D0F4
:1006300006B080BD41F21801C4F202010A6842F41A
:1006400000720A600A6802F400720192019A0A6854
:1006500042F004020A60096801F004010191019965
:10066000012102910321039102A900F0F1F906B0E2
:1006700080BD0000F0B581B000270D46044600970C
:1006800000F0F4FA21688A68D20543D40646486827
:10069000C00503D4C86A10F4700F45D040F20800BA
:1006A000C2F200000768022000F08AFB216844F6CD
:1006B00024130A69B7FBF0F0C2F292431A4206D142
:1006C000CA6844F62413C0F292031A425ED00A6943
:1006D00042F29243C1F249231A4207D1CA6842F258
:1006E0009243C0F249031A4200F0C0800A6949F2FD
:1006F0004923C0F224031A424FF0FC0257D1CF68BD
:100700001F4208BF5422009B02FB00F7BB4253D399
:10071000C3E000BFA06A40F02000A06284F824700B
:10072000012001B0F0BD00BF0868800700F1B5806E
:10073000681C00F0A880FDB90868800772D50868B9
:10074000800700F1AA80086880076BD508688007D9
:1007500000F1A3800868800764D50868800700F16D
:100760009C80086880075DD508688007E4D594E020
:100770000868800700F1918000F078FA801B2168FA
:10078000A842F5D908688007F2D44BE00A6942F222
:100790009243C1F249231A424FF0290207D1CB6894
:1007A00042F29247C0F249073B4208BF1422009B25
:1007B00002FB00F7BB4270D2681C4FD055BB0098BB
:1007C000B8422FD30098013000900098B84264D20C
:1007D0000098B84226D30098013000900098B842A3
:1007E0005BD20098B8421DD3009801300090009869
:1007F000B84252D20098B84214D300980130009009
:100800000098B842DBD348E000980130009000988F
:10081000B84233D200F02AFA801BA842F4D90098DB
:10082000B842F1D2A06A40F00400A062002084F82F
:100830002400032001B0F0BD009801300090009822
:10084000B8422AD20098013000900098B84224D2D1
:100850000098013000900098B8421ED200980130F4
:1008600000900098B842E7D317E000BF5422009BE5
:1008700002FB00F7BB429FD30FE000BF21680CE0F2
:100880000868800709D40868800706D408688007CC
:100890005CBF08685FEA8070F2D56FF012000860F4
:1008A000A06A40F40070A062886800F46020B0F58F
:1008B000602F01D1207B18B1002001B0F0BD00BF36
:1008C000A06A20F48070A062A06AC004F4D4A06A78
:1008D00040F00100A062002001B0F0BD10B5044658
:1008E00090F82400012804BF022010BD012084F8E4
:1008F00024002046FFF7B4FC20B1002184F8241026
:1009000010BD00BF42F2044C2068A16AC4F2010C81
:1009100040F2013291430CF57F7201F580719042F3
:10092000A16233D0A16A21F48011A1624168490516
:1009300004D5A16A012363F30D31A162A16A0023EA
:10094000C9044FF0000144BFE16A21F00601E162F1
:100950006FF0020184F824300160816801F46021A5
:10096000B1F5602F06D190420AD1DCF8001011F4E5
:10097000702F05D0816841F480118160002010BD86
:10098000816841F4A0018160002010BDDCF80010F6
:1009900011F4702FC6D0A16A41F48011A162DCF875
:1009A00000104905C5D4C9E7B0B5044690F8240045
:1009B000012804BF0220B0BD0121206884F8241062
:1009C0008168C90709D0816821F00101816000F0C8
:1009D0004DF921688968C9070ED1214651F8280FC1
:1009E00041F2011220EA0202002042F001020A60F4
:1009F000002184F82410B0BD054602E08068C007DD
:100A0000EBD000F033F9411B20680329F6D381684D
:100A1000C907F3D0A06A214640F01000A06251F847
:100A20002C2F0120E1E70000B0B5044600F01EF9CC
:100A3000054640F20000C2F200000078611C18BFB9
:100A4000044400BF00F012F9401BA042FAD3B0BD2D
:100A50002DE9F04F82B00E68002E00F0038141F2C4
:100A60000042C4F20102042340F2004E904208BF4B
:100A700003234FF6FF7CC4F2010E009300240123F0
:100A8000C1F2100C4FF0000A4FF0000949E000BF1E
:100A9000012704F00C030F229A402BEA020207FA06
:100AA00003F34FEA9A051A4346F82520D1F804B01B
:100AB00040F20C455FEACB22DEF8082054BF22EA60
:100AC000080242EA0802C4F20105CEF808202A68AA
:100AD0005FEA8B2354BF22EA080242EA08022A6036
:100AE0005FEA8B33DEF8042054BF22EA080242EAB0
:100AF00008025FEACB33CEF80420DEF800204FF086
:100B0000010354BF22EA080242EA0802CEF800209C
:100B10000E680AF1010A36FA0AF204F1040400F040
:100B2000A18003FA0AF816EA080FF1D04E6866456C
:100B300012DC122E56D8DFE806F0350B4549555524
:100B400055555555555555555555554D510000BFA1
:100B5000D1F80C9046E000BF4FF6FF72C1F22102BF
:100B600096420FDC0022C1F2110296421AD00022F6
:100B7000C1F21202964215D00022C1F22102964221
:100B800010D02FE00022C1F2220296420AD00022A9
:100B9000C1F23102964205D00022C1F232029642E1
:100BA00020D100BF8A684AB1012A14BFC0F814805E
:100BB000C0F810804FF0080914E000BF4FF004099E
:100BC00010E000BFCA6802F108090BE04FF000090D
:100BD00008E000BFCA6802F1040903E0CA6802F134
:100BE0000C0900BF22460646BAF1080F24BF203A7E
:100BF000043637680F25954027EA050509FA02F201
:100C00002A433260CA79D2067FF582AF41F21803D7
:100C1000C4F202031A68AEF57E7642F001021A6051
:100C20001A6802F001020192019A2AF0030256F8B2
:100C300002B040F60002C4F20102904210D040F629
:100C40000042C4F2010290423FF422AF41F200029E
:100C5000C4F20102009F904208BF022719E700BFBB
:100C6000002716E702B0BDE8F08F000040F2CC008C
:100C7000C2F200000068704740F2000040F2CC0170
:100C8000C2F20000C2F2000100780A681044086055
:100C90007047000080B542F20000C4F20200016813
:100CA00041F010010160032000F07AF80F2000F0FD
:100CB00005F800F027F8002080BD000070B540F274
:100CC0000006C2F2000640F208013278C2F20001CA
:100CD0004FF47A730968B3FBF2F20446B1FBF2F108
:100CE000084600F039FC0F2C4FF0010508D838B940
:100CF0004FF0FF3021460022002500F025F87460F7
:100D0000284670BD82B041F21800C4F202000168AA
:100D1000022241F001010160016801F0010101912D
:100D20000199416841F080514160406800F0805075
:100D3000009000980420C4F20100016862F31A6177
:100D4000016002B07047000010B54EF60C5CCEF2A8
:100D5000000CDCF80030C3F3022E8EF00704042CE4
:100D600028BF0424BEF103034FF0FF3E0EFA04F443
:100D700038BF0023A14399400EFA03F39A4311436D
:100D800000F00F0200F160430901043A03F56443E7
:100D90006244002848BF02F10C03197010BD000026
:100DA0004EF60C51CEF200010A684FF6FF031A40CE
:100DB00060F30A2242F0806040F0FD7008607047E6
:100DC00080B5012818D0022836D0102832D141F23F
:100DD0000401C4F202010A6851F8040CC00129D5CB
:100DE000C2F383402DA3185CD2033DD440F6001219
:100DF000C0F23D02504343E041F20400C4F202005D
:100E0000C16940F202320A40B2F5817F04BF4FF45B
:100E1000004080BD01F44071B1F5407F1CD0B1F5B8
:100E2000007F07D1006A49F64041800701EAE0707F
:100E300080BD00BF002080BD00F0A0F941F2040198
:100E4000C4F2020109680222C1F3813102EB4101BF
:100E5000B0FBF1F080BD00BF50F8040C4FF224410C
:100E6000800301EAE07080BD0A6810A3C2F340422B
:100E70009A5C41F20023C0F27A03B3FBF2F25043D2
:100E80000968490248BF80BD4AF6AB214000CAF656
:100E9000AA21A0FB0101480880BD00BF0203040590
:100EA000060708090A0B0C0D0E0F101001020000B6
:100EB0002DE9F04182B00446007841F21C06C007DB
:100EC000C4F202064AD0306810F0805808D1306869
:100ED00040F080503060306800F080500190019800
:100EE00047F20007C4F200073868C00512D438681A
:100EF00040F480703860FFF7B9FE05463868C005D9
:100F000008D4FFF7B3FE401B6428F7D9032002B0D2
:100F1000BDE8F081706810F4407012D0616801F48F
:100F2000407188420DD0706840F24042C4F24222C3
:100F3000012320F4407113600023C0071360716027
:100F40002AD17068616820F440700843B8F1000F3E
:100F5000706003D1306820F08050306020688107D5
:100F600007D556F8181CA26821F44041114346F8F1
:100F7000181CC00604D4002002B0BDE8F08100BFF8
:100F800056F8180CE16820F48000084346F8180C65
:100F9000002002B0BDE8F081FFF768FE054641F28F
:100FA000883700BF70688007CBD4FFF75FFE401B17
:100FB000B8424FF00300F5D9EBE700002DE9F0430C
:100FC00081B0002800F0858042F20008C4F20208D7
:100FD0000446D8F800000D4600F0070088420CD205
:100FE000D8F8000020F007002843C8F80000D8F81F
:100FF000000000F00700A8426BD1206841F204090C
:101000008107C4F2020917D5410705D5D9F80010A8
:1010100041F4E061C9F80010010705D5D9F80010C6
:1010200041F46051C9F80010D9F80010A26821F00D
:10103000F0011143C9F80010C00741D1D8F80000F1
:1010400000F00700A8420CD9D8F8000020F00700F3
:101050002843C8F80000D8F8000000F00700A842B4
:1010600037D12068410707D5D9F80010E26821F48C
:10107000E0611143C9F80010000708D5D9F8000055
:10108000216920F4605040EAC100C9F80000D9F895
:10109000002002F00C00082841F20020C0F27A0083
:1010A00050D143F62A03C2F38341C0F60003595CD2
:1010B000D2033BD440F60010C0F23D00484341E06B
:1010C000606802280AD001282AD159F8041C890333
:1010D00008D4012001B0BDE8F08300BF59F8041C1A
:1010E0008901F6D5D9F8001021F003010843C9F8A9
:1010F0000000FFF7BBFD064641F28837D9F8000033
:10110000616800F00C00B0EB810F97D0FFF7AEFDE7
:10111000801BB842F2D9032001B0BDE8F08300BFC4
:1011200059F8041C8907D4D5DCE700BFD9F80020A2
:1011300043F62803C2F34042C0F600039A5C4843DA
:10114000B0FBF2F0D9F8001043F61002C1F303111E
:10115000C0F60002515C40F2080220FA01F140F2B0
:101160000400C2F200000068C2F200021160FFF742
:10117000A5FD002001B0BDE8F083000040F20800AA
:1011800041F20401C2F20000C4F2020100680968E1
:1011900043F62002C1F3C221C0F60002515CC840F0
:1011A000704700002DE9F04182B0002868D0044665
:1011B000007841F20006C007C4F2020625D070682C
:1011C00000F00C0004281BD0706800F00C00082808
:1011D00002D17068C00313D46068002800F06881F1
:1011E000B0F5A02F00F07C81B0F5803F00F07C814D
:1011F000306820F480303060306820F4802076E160
:101200003068800301D56068D0B32078800718D596
:10121000706810F00C0F07D0706800F00C00082800
:101220006ED17068C0036BD43068800702D5206926
:10123000012825D13068616920F0F80040EAC1003A
:101240003060207800071FD42078400732D4E56949
:1012500095B1706800F00C00082840F08F80012DD7
:101260000ED07068216A00F480328A4208D1616A27
:1012700000F47010884203D1002002B0BDE8F08174
:10128000012002B0BDE8F081A069002862D00020F2
:10129000C4F242200121C0F88014FFF7E7FC0546A4
:1012A000706A800700F18C80FFF7E0FC401B022889
:1012B000F6D92AE1F06910F0805808D1F06940F0C1
:1012C0008050F061F06900F080500090009847F283
:1012D0000007C4F200073868C00529D4386840F414
:1012E00080703860FFF7C2FC054600BF3868C00553
:1012F0001ED4FFF7BBFC401B6428F7D905E100BFF3
:101300002069002840F20000C4F2422000F08280F0
:1013100001210160FFF7AAFC054600BF3068800785
:101320003FF588AFFFF7A2FC401B0228F6D9ECE09E
:10133000E068002800F08080052800F097800128F0
:1013400000F09880306A20F001003062306A20F0AE
:10135000040092E00020C4F242200021C0F8801472
:10136000FFF784FC054600BF706A80077FF56CAF0D
:10137000FFF77CFC401B0228F6D9C6E00027C4F228
:10138000422700203866FFF771FC022D05460BD17D
:101390003068800140F1BE80FFF768FC401B0228E6
:1013A0004FF00300F4D968E7306880017FF564AF3F
:1013B000FFF75CFC401B02284FF00300F4D95CE708
:1013C00040F20800C2F20000006844F6D351C1F2B6
:1013D0006201A0FB0101480A019000BF00BF019813
:1013E000411E002801913FF42FAF00BF0198411E1C
:1013F000002801913FF428AF00BF0198411E00284A
:1014000001913FF421AF00BF0198411E00280191D6
:10141000E4D119E700210160FFF728FC054600BF71
:10142000306880077FF50DAFFFF720FC401B0228D6
:101430004FF00300F4D920E7306A20F00100306259
:10144000306A20F004003062FFF710FC054641F2DC
:10145000883700BF306A800720D5FFF707FC401BA4
:10146000B8424FF00300F5D907E700BF306A40F0FB
:1014700004003062306A40F001003062FFF7F6FB92
:10148000054641F2883700BF306A800706D4FFF76F
:10149000EDFB401BB842F7D937E000BFB8F1000FB1
:1014A0007FF4D5AEF06920F08050F061CFE600BF48
:1014B000306820F480303060306820F48020306064
:1014C000FFF7D4FB054600BF306880037FF59DAE73
:1014D000FFF7CCFB401B64284FF00300F4D9CCE6A7
:1014E000306840F480203060306840F480303060F4
:1014F000FFF7BCFB054600BF306880033FF585AEB3
:10150000FFF7B4FB401B6428F6D9032002B0BDE806
:10151000F08100BF206AB0F5803F05D17168A268F4
:1015200021F40031114371607168626A21F4741111
:1015300011430843706001203866FFF797FB0446AB
:10154000306880013FF598AEFFF790FB001B022842
:101550004FF00300F4D990E6411E0020B0EB116F6C
:101560001CBF012070474EF21002CEF20002516003
:101570004EF62351CEF20001F0230B70072190604C
:1015800011607047FEE70000FEE7000040F2C40172
:10159000C2F20001086070472DE9F04381B040F2CB
:1015A000C809C2F20009D9F8001004460846FFF73E
:1015B00095F9D9F800004FF47A71FFF75BF8D9F884
:1015C0000000FEF773FF80B201F0A7FB46F26668E9
:1015D000C4F20A084FF06632434601F0EDFB4FF6C5
:1015E0000066C4F2AF060022334601F0E9F901F0CB
:1015F000F9F8E06101F0F4FE48F20005C4F240059C
:1016000002460B460020294601F0DAF90027CCF209
:10161000240700223B4601F017F901F0E3F8E060EF
:1016200001F0DEFE49F69A1249F69913C9F69912AD
:10163000C4F2110301F0C4F901F0D4F8D9F8001094
:10164000A0600846FEF732FF80B201F066FB4FF063
:101650006632434601F0B0FB0022334601F0B0F998
:1016600001F0C0F8E06101F0BBFE02460B4600202D
:10167000294601F0A5F900223B4601F0E5F801F00A
:10168000B1F8A168206101F0D7FEA06101F0A8FEC9
:1016900000F01AFB0546D4E900070E4601F0A0FE53
:1016A00002460B462846314601F0ACFD0546384659
:1016B0000E4601F095FE02460B462846314601F0E3
:1016C0007FF90B4600210246C4F22401002000F0FD
:1016D0006DFB01F087F844F20001C4F21C61606107
:1016E00001F0AAFE2062FFF751FFD9F8000001B017
:1016F000BDE8F043FFF758B940F2C80CC2F2000C45
:10170000CCF80010C0E9002370470000FEE700009D
:101710007047000070470000FFF7AEBA7047000046
:10172000FEE7000094B0FFF7B5FA00240120CDE9F0
:101730000F44CDE90D440A900E904FF4E0104FF4A1
:101740008031022513900AA80494CDE90244CDE922
:101750000B14CDE91151FFF725FD28B1EFF31080EF
:1017600072B600BFFEE700BF0F20CDE905054FF4BC
:101770008060CDE9080405A802210794FFF71EFC4C
:1017800020B1EFF3108072B6FEE700BF0220019097
:101790004FF40040039001A8FFF78AFB20B1EFF35C
:1017A000108072B6FEE700BF41F21800C4F20200DA
:1017B000016840F2700441F0200101600168C2F24A
:1017C000000401F020010A910A990168002541F006
:1017D00004010160006842F2004100F004000A9038
:1017E0000A98C4F20101204640F8241F4FF46021FA
:1017F000012605730575C161C0E901550661FEF753
:1018000059FE28B1EFF3108072B600BFFEE700BFAB
:10181000CDE90A560C9504F124050AA92846FEF7DD
:101820007FFD28B1EFF3108072B600BFFEE700BF66
:101830004AF6084245F63563C3F67C72CCF20A03D9
:1018400020462946FFF758FF2046FFF7A5FE0A204D
:10185000FFF7EAF8F8E7490050EAC12018BF042072
:101860004A0D18BF40F0010040F2FF72B2EB515F29
:1018700008BF40F00200012808BF052070472DE98D
:10188000F0414F1E00EBC7010446D1E900011546A7
:101890001E4637F006020DD02A46334601F08CFA78
:1018A0007F1E04EBC703D3E9002300F0CDFF37F020
:1018B0000602F1D1022F25D0042F13D0062F18BF16
:1018C000BDE8F0812A46334601F076FAD4E90A23CE
:1018D00000F0BAFF2A46334601F06EFAD4E9082335
:1018E00000F0B2FF2A46334601F066FAD4E9062337
:1018F00000F0AAFF2A46334601F05EFAD4E9042339
:1019000000F0A2FF2A46334601F056FAD4E902233A
:1019100000F09AFF2A46334601F04EFAD4E900233C
:10192000BDE8F04100F090BF002213461046014987
:1019300001F046B80000F03F012201F0BCBE00F00B
:1019400083BF002213461046114601F039B840F219
:10195000013200204FF0E04101F0ADBE024A00200C
:10196000110701F0A8BE000001FDFFFF2DE9F04DB9
:10197000C84A002490B0914205DA21F00043934216
:1019800001D805D120B110B0BDE8F04DFFF7D4BFAC
:10199000B1F5801F1BDA53EA000209D0002911DAE1
:1019A0000120FEF719FC10B0BDE8F04DFFF7C9BFEC
:1019B0000220FEF711FCFFF7B7FF10B081F00041E5
:1019C000BDE8F08D6FF03504362201F074FE04EBB3
:1019D0002152C1F31308B049A2F2FF33414401F48C
:1019E000801282F07F6103EB225281F0405100921D
:1019F00041EA08010022A94B01F004FC044608F169
:101A00000200A74EC0F313000D467E44032867D2A0
:101A1000D6E90023204601F02DF91ED100980028B8
:101A200002BFD6E9000110B0BDE8F08D01F05EF90B
:101A300007460C469B4A9C4B01F0BEF906460D46F4
:101A40009A4A9B4B3846214601F0B6F910B032460F
:101A50002B46BDE8F04D00F0F7BE4FF05532954BE8
:101A60002046294601F0A8F90022934B01F0D8FA4C
:101A700006460F4622462B461046194601F09CF9B1
:101A800032463B4601F098F9064600980F46F0B101
:101A900001F02CF980468A46824A834B01F08CF98A
:101AA00032463B4601F0BCFA22462B4601F0AAFB27
:101AB00005460C467D4A7E4B4046514601F07CF976
:101AC00010B02A462346BDE8F04D01F09BBB0B4603
:101AD00010B0324620462946BDE8F04D01F092BBD9
:101AE00000224FF08043204600F0AEFE02460B4637
:101AF0002046294600F064FF06460F46009801F094
:101B0000F5F8CDE9040132463B461046394601F06E
:101B100053F90C9069480C9A4044019009910B4686
:101B2000104601F049F98246024665488B46C8F1E5
:101B300051080B4608F5D72803217844FFF79FFE8C
:101B400052465B4601F038F90A905E480D915246C4
:101B50005B4604217844FFF792FE099B0C9A01F042
:101B60002BF9844601980D9B40EA080860460A9AC2
:101B700000F06AFE83460891B8F1000F4EDD4FF089
:101B8000FF322046294601F096FD22462B4601F001
:101B900013F9804600988A4660B3DDE90401414AA2
:101BA000414B01F009F9099100905A4640465146CF
:101BB000089B00F049FE32463B4601F0FDF8099BC8
:101BC000009A00F041FE4246534601F029FA2246AF
:101BD0002B4601F017FB04460D46DDE90401334AAC
:101BE000334B01F0E9F810B022462B46BDE8F04D2A
:101BF00001F008BB5A464046089B00F025FE3246DD
:101C00003B4601F0D9F84246534601F009FA10B0BC
:101C100022462B46BDE8F04D01F002BA009840B3D1
:101C2000DDE904011F4A204B01F0C6F880468A46D0
:101C30005A4620462946089B01F0E4FA32463B46C4
:101C400001F0BAF84246534601F0DCFA22462B4630
:101C500001F0D8FA04460D46DDE90401134A144B9D
:101C600001F0AAF810B022462B46BDE8F04D01F075
:101C7000C9BA0B465A462046294601F0C3FA3246F5
:101C80003B4601F099F810B022462B46BDE8F04DD6
:101C900001F0C6B90000F07F645F09000000F03F6A
:101CA000FA1D0000763C7935EF39EA3D0000E0FE90
:101CB000422EE63F5555D53F0000E03F86EBF9FF49
:101CC000921C0000901C00002DE9F04104463048B1
:101CD0000025814205DA21F00042824201D805D177
:101CE00024B12046BDE8F041FFF726BEB1F5801FC4
:101CF0001BDA52EA040008D000290FDA0120FEF7AF
:101D00006BFABDE8F041FFF71CBE0220FEF764FA53
:101D1000FFF70AFE81F00041BDE8F0816FF0350564
:101D20003622204601F0C7FC044605EB2150A0F204
:101D3000FF32D00F40F2FF331B1A0D4663F31F55DD
:101D4000104400F0D3FF06460F4629462046FFF711
:101D50000DFE104A104B01F02FF804460D460F4AB5
:101D60000F4B3046394601F027F822462B4600F04B
:101D70006BFD05460C460B4A0B4B3046394601F0CD
:101D80001BF82A462346BDE8F04100F05DBD000087
:101D90000000F07F0EE526157BCBDB3F362BF111E3
:101DA000F3FE593D00609F501344D33F2DE9F04DA1
:101DB0001D460C4694B0174621F0004123F0004325
:101DC000002814BF4FF0010C4FF0000C0CEB440C3A
:101DD000FB4A0CEB02064FEA620C66452BD33E0031
:101DE00018BF012606EB45061644F64A964222D352
:101DF000F54A53EA070C02D0944205D148B914B011
:101E000000201146BDE8F08D002808BF4FF0000CFF
:101E100001D04FF0010C0CEB440212F5001F0AD860
:101E2000002F14BF4FF0010C4FF0000C0CEB4502DB
:101E300012F5001F07D914B03A462B462146BDE8DB
:101E4000F04DFFF77CBD0022DFF880A3002CB8BF67
:101E5000534526DADFF878C36345A8BF022220DAAB
:101E6000DFF864C39C451CDCDFF868C30CEB235C23
:101E7000BCF1140F08DDCCF1340627FA06FC0CFA8D
:101E800006F6BE420DD108E05FB9CCF1140623FA84
:101E900006FC0CFA06F69E4203D10CF00102C2F1D8
:101EA000020251EA000C19D1002D17DA002C18BFDC
:101EB000022A01D0012A07D00220FEF78DF914B0C2
:101EC000BDE8F04DFFF730BD0220FEF785F9FFF7C2
:101ED0002BFD14B081F00041BDE8F08DB7F1000C8E
:101EE0006CD1534525D104F1804212F5801201BF17
:101EF00000280020B44914B008BFBDE8F08DB248F6
:101F0000884207DC002DA1BF6046294614B0BDE819
:101F1000F08D07E0002DBFBF604685F0004114B092
:101F2000BDE8F08DAC497944D1E9000114B0BDE8B9
:101F3000F08DDFF894C2634525D1002D1FDA19B169
:101F4000514512D1D8B909E0002840F0F6829F4AE5
:101F5000214614B062F31E01BDE8F08D0020214639
:101F600014B060F31E01BDE8F08D08DA14B023460A
:101F7000BDE8F04D02460020614600F021BD14B0DE
:101F80002146BDE8F08D514518DAB5F1804F0DD0EE
:101F9000A5F1005CBCF1FF5C10D1B4F1000C0DDBCD
:101FA00014B06146BDE8F04D00F0F6BB234614B016
:101FB0000246BDE8F04D194600F0FEBE060024F0D2
:101FC000004C3BD1D9B1514533D1002C06DD002D59
:101FD000A1BF0020514614B0BDE8F08D002C01DDFA
:101FE000002D1BDB002C13DA002D11DB012A4FF032
:101FF000000014BF7549794914B0BDE8F08D022A7C
:1020000018BF002C0AD0012A08D1002C06DA0AE0F9
:10201000002CB8BF002D11DA012A04D0002014B022
:102020000146BDE8F08D14B000204FF00041BDE83E
:10203000F08DA1F14050B0F17F601AD0012000EB8B
:10204000E47050EA020421D05F4C521E4FF0000BA6
:10205000104304BF4FF0000B614C624883427DDDAA
:10206000614A6248934229DD884217DB002D2FDB4D
:1020700041E0002C00DA4AB1022A0CBF01204FF0E7
:10208000FF3014B0BDE8F04D00F030BE0120FEF787
:10209000A3F814B0BDE8F04DFFF753BC4A4A8A429A
:1020A0000CDC002D14DC0220FEF796F8FFF756FC3E
:1020B00061F31E0414B02146BDE8F08D814202DABE
:1020C000002D18DA04E0404B994220DD002D12DD8E
:1020D0000220FEF781F8FFF73AFC05460E46002283
:1020E00053465846214600F067FE14B066F31E01C1
:1020F0002846BDE8F08D0220FEF76EF8FFF72EFCB3
:102100000A46214614B062F31E01BDE8F08D00229C
:102110003046614601F076F8064688466FF00102C7
:1021200001F0C9FA4FF05532314B00F079FF3246D9
:10213000434600F041FE00222E4B00F071FF8A461C
:102140003246434602901046194600F035FE53468B
:10215000029A00F031FE8246324600E054E00591DA
:1021600043464FF0C040244900F026FECDE90C0163
:10217000224A214B5046059900F01EFE82460191ED
:102180001F4A204B3046414600F016FE5246019B46
:1021900001F038F882460B4602460991DDE90C0150
:1021A00000F052FBDDE90C2300268846304601F0A2
:1021B00029F85246099B00F033FF024600F07EB931
:1021C000FFFF1F00FFFF0F000000F03F0000F07F47
:1021D0000000404301FCFFFFDE1800000000F0FF9C
:1021E0000000F0BF0000E0410000F043FFFFEF3FC0
:1021F0005555D53F0000E03F4715F73FFE822B6560
:1022000044DF5DF80BAE543E0020B1F5801F07DAC5
:1022100035223046614601F04EFA06466FF0340032
:1022200000EB2150A0F2FF300190C1F3130040F009
:102230007F6141F040510291FE498842D8BF0020A1
:1022400004DDFD498142C8BF012001DD0F9008E097
:1022500000200F900198401C01900298A0F580107A
:1022600002900299F548784405910F9900EBC1005E
:102270001290D0E900233046059900F0C3FFCDE964
:102280000C011298D0E900233046059900F0DCFAE1
:1022900002460B460020EA4900F092FB0B46CDE9CE
:1022A00008010246DDE90C0100F086FD0A90E548D0
:1022B0008A464FF0000878440299006810904FF069
:1022C000005040EA61010F9801EB804000F50021C9
:1022D00012981191D0E90023109800F093FF324634
:1022E000059B00F09DFE4246534600F065FDDDE98A
:1022F0001023064603914046514600F05DFDDDE99E
:102300000C2300F08DFE3246039B00F07BFFDDE9DD
:10231000082300F051FD03910A9A1290534610468B
:10232000194600F049FD06460246C7480B46029191
:1023300006217844FFF7A3FA029B324605910890E4
:102340001046194600F038FD059B089A00F034FD50
:10235000064609915346404619460A9A00F074FA17
:10236000039B129A00F028FD3246099B00F06CFA9C
:10237000CDE90801424653461046194600F01CFDBF
:1023800002460B46029104900020B04900F05CFA2E
:10239000DDE9082300F058FA0E464246AB4B4046B2
:1023A00000F030FF029B049A00F02CFFDDE90823C7
:1023B00000F036FE424604910290334610465146E4
:1023C00000F0FAFCCDE90C0153460A9A04990298F0
:1023D00000F0F2FC8246009133464246039912987F
:1023E00000F0EAFC5246009B00F02EFA82460B46B3
:1023F00002460991DDE90C0100F026FADDE90C2323
:1024000000268846304600F0FDFE5246099B00F04B
:1024100007FECDE90801434632464FF060408C4943
:1024200000F0CAFC82460491DDE90801894A884B24
:1024300000F0C2FC0291009043463246864887492C
:1024400000F0BAFC029B009A00F0FEF9844B7B443A
:102450000F9A03EBC203D3E9002300F0F5F90090D3
:102460000291019800F042FC0E9003915046029BAD
:10247000009A049900F0E8F97A4A7A440F9B02EB3B
:10248000C3030993D3E9002300F0DEF9039B0E9AFE
:1024900000F0DAF988463046039B0E9A00F0B2FE4F
:1024A000099BD3E9002300F0ADFE5246049B00F0E7
:1024B000A9FE029B009A00F0B3FD024600200B46E5
:1024C00002903846294600F077FC824603912B465D
:1024D00038461946029A00F095FE3246434600F00F
:1024E0006BFC5246039B00F0AFF907468A46324622
:1024F00043462946029800F05FFC05460E463A46E0
:10250000534600F0A1F9584A8846914221DBA8EBD6
:10251000020353EA000210D12A46334600F072FE4D
:10252000CDE90310514A524B3846514600F08CF920
:10253000DDE9033200F03EFD21D20220FDF74CFE22
:10254000FFF705FA0A46214614B062F31E01BDE802
:10255000F08D484B28F000429A4210D3464A08EBCF
:10256000020353EA00027FF4C6AD2A46334600F068
:1025700049FE3A46534600F01DFD7FF6BCAD0022F1
:10258000019228F000403D493D4A01EB2051824232
:1025900023DA481C4FF4801121FA00F04044394AF4
:1025A000C0F30A517A44384BA1F2FF31CB4020EA04
:1025B0000303C0F3130040F48010C1F11401C840BC
:1025C00012680190B8F1000FBCBF4042019028464C
:1025D000314600F017FE05460E462A463346384679
:1025E000514600F031F94FF000084246274B404673
:1025F000039100F0E1FBCDE90C01254A254B404653
:10260000039900F0D9FB029100902A4633464046D8
:10261000039900F0F7FD3A46534600F001FD1E4ACB
:102620001E4B00F0C9FB029B009A00F00DF9074613
:10263000884635E08E9803007AB60B00DE14000061
:102640000000F03F4E15000042140000000008405A
:1026500009C7EE3FFD033ADCF5015B14E02F3EBEF7
:1026600016130000DA12000000009040FE822B6575
:102670004715973C00CC904000346F3F01FCFFFFB2
:102680000000E03F60120000FFFF0F00432EE63F16
:10269000396CA80C615C20BEEF39FAFE422EE63F91
:1026A00002460B46DDE90C0100F0CEF8DDE90C2313
:1026B00005460E4600F0A6FD3A46434600F0B0FC43
:1026C00007462A46334605911046194600F074FB2A
:1026D000824602462E4888460B4605217844FFF77D
:1026E000CEF85246434600F067FB2A46334600F0D8
:1026F00097FC80468A463A4628463146059B00F0BC
:102700005BFB3A46059B00F09FF805910090002284
:102710004FF080434046514600F074FD0746039158
:10272000424653462846314600F046FB3A46039B54
:1027300000F046F9059B009A00F064FD2A463346F6
:1027400000F060FD0022134B00F06AFC0546019882
:102750000E4601EB00510815002810DC28463146D2
:10276000019A00F0A8FFFFF776F8042808BFFFF7EA
:10277000F5F828463146019A00F09DFF05460B46C4
:1027800014B02A4658462146BDE8F04D00F014BB6F
:10279000C81000000000F03F2DE9F04106460F464A
:1027A00000F04AFC041E0D4618BF0120284320F00B
:1027B0000040C0F17F6000F1E040C00F0ED0301C3F
:1027C00018BF0120384320F00040C0F17F6000F1C5
:1027D000E040C00F04BF0120FDF7FEFC2046294663
:1027E000BDE8F08121F0004201F00043A2F1605207
:1027F000B2F5801F28BFD2F17F6C0BD95FEA001CB5
:1028000043EAC20242EB507018BF704728BF20F065
:1028100001007047B2F5801FBCBF184670474FEAF1
:10282000410C1CF5001F02D2084600F00DBF70B528
:1028300000F06CFB00000089FFF7F6BF4FF000408E
:10284000A0F580007047000010B591EA030F48BF63
:1028500083F0004300F1DE84841A71EB030C05D28F
:10286000121943EB0C03001B61EB0C014FEA1154EE
:10287000A4EB135CDFF81CE11EEA430F18BF9EEACD
:10288000445F00F0748021EA045123EA0E0343F40C
:102890008013DCF1200E32D322FA0CFE10EB0E0076
:1028A00023FA0CFE41EB0E01CCF1200E03FA0EFED2
:1028B00010EB0E00CCF1200E51F10001B1F5801F9C
:1028C00032D201EB045112FA0EF2BDE8104058BFAB
:1028D0007047401C38BF5FEA420218BF70470028AB
:1028E00014BF20F0010041F100014FEA410313F54C
:1028F000001F38BF7047A1F1C04100F055BB012A4D
:1029000043EB0302ACF1200CDCF11F0E32BF4FF0A1
:10291000000E23FA0CF310EB030041EB0451B4EB6F
:10292000115FD0D0A1EB045101F58011490801EBF2
:1029300004515FEA30000ED350F1000038BF12FAA4
:102940000EFE08D1BDE81040C9E7401C38BF5FEA61
:102950004202CAD1C3E7BDE810404FEA410313F574
:10296000001F38BF7047A1F1C04100F01DBB9EEAB7
:10297000445F08D011EA5E0FBDE8104004BF01F0CB
:10298000004100207047BDE8104070B500F0BEFA6D
:1029900064FBBE3E0000E0FF02494FF0000000F083
:1029A00058BE00BF0000F87F491058BFC1F1404138
:1029B0005B1058BFC3F140438B42EFF30080704778
:1029C0002DE9C04130B4DFF8A4C23CEA111418BFAD
:1029D0003CEA131400F0ED801CEA111481EA0305AF
:1029E00044EAD57418BF1CEA131500F0C880A4EBA4
:1029F000050404F17F7404F500344FF0004545EA06
:102A0000C12145EAC32341EA505143EA52534FEAF8
:102A1000C0204FEAC222994208BF904200F09D8038
:102A20004FEA13650FF24416765D4FEA134506FB35
:102A300005F7C7F1807706FB07F74FEAD737A7FB03
:102A400003687642A7FB06CEC8F5803838BFA8F1E8
:102A5000010807FB08E6A6FB028C4FF0000EE6FB20
:102A600003CEDCF1000CCEF1004E38BFAEF1010E0A
:102A7000A6FB0C584FF00007E6FB0E87A1FB08C62B
:102A8000A0FB07CE16EB0E064FF0000545F1000542
:102A9000E1FB076515F1E04E7EBFA4F580345FEAE7
:102AA00046066D4116F1800745F100054FEA1727EC
:102AB00047EA05674FEA15254FEA0666A6F1DE46A6
:102AC000B6F1805F20D9384605EBC47124F0010CC3
:102AD00001EB0C11BCF1FE6F02D8F0BCBDE8008127
:102AE00024425CBF01F5801E9EEAC47F02D4F0BC84
:102AF000BDE80081244200F13980A1F1C041F0BC61
:102B0000BDE8004100F050BA4FEAD02040EA415001
:102B10004FEAD1214FEAD22242EA43524FEAD3236D
:102B2000A7FB028607FB036605FB02661EEA0E0F83
:102B300058BFA6EB0056B6EB00564FEA520E4EEACF
:102B4000C37E18EB0E0E56EB530EBCD518EB0208E5
:102B50005E417F1C55F10005B5E74FF480154FF03D
:102B600000074FF000064FF00008ACE701F1C0414C
:102B700001F000414FF00000F0BCBDE800810CEA1C
:102B8000131511EA0C1F00D00CE013EA0C1F00F023
:102B900026804FF0000081EA030101F00041F0BC03
:102BA000BDE80081F0BCBDE8004181EA030100F00E
:102BB000FBB9F0BCBDE8004170B500F0A7F900BF5B
:102BC000097EFC3E00F007B84FF0000081EA0301E7
:102BD00001F00041704781EA030100F0E5B9F0BC63
:102BE000BDE8004122494FF000007047FFFDFBF9AE
:102BF000F7F5F4F2F0EEEDEBE9E8E6E4E3E1E0DE30
:102C0000DDDBDAD8D7D5D4D3D1D0CFCDCCCBCAC8A1
:102C1000C7C6C5C4C2C1C0BFBEBDBCBBBAB9B8B7C8
:102C2000B6B5B4B3B2B1B0AFAEADACABAAA9A8A8BB
:102C3000A7A6A5A4A3A3A2A1A09F9F9E9D9C9C9B89
:102C40009A99999897979695959493939291919034
:102C50008F8F8E8E8D8C8C8B8B8A898988888787C5
:102C60008685858484838382828181800000FF073A
:102C70000000F87F51EA030C17D41CF5801F58BFE1
:102C8000BCF5801F00F10680994218BF704708BF4D
:102C90009042704707D711F5801F58BF13F5801F6A
:102CA00019D499427047894270471CF5801F08D596
:102CB000BCF5801FF7D58B4218BF704708BF824212
:102CC00070474FF4001C1CEB410F38BF1CEB430F47
:102CD00001D28B42704770B500F018F99224490078
:102CE0004FF000514FF08053FFF75EBE10F00042EE
:102CF00048BF4042B0FA80F310FA03F10AD0C3F1A2
:102D00001D0303F5806302EB03524FEA415002EBCF
:102D1000D12170474FF000007047B0FA80F310FAED
:102D200003F10AD0C3F11D0303F580634FEA035298
:102D30004FEA415002EBD12170474FF0000070473D
:102D400051EA030C17D41CF5801F58BFBCF5801F37
:102D500000F10680994218BF704708BF9042704743
:102D600007D711F5801F58BF13F5801F19D499425A
:102D70007047894270471CF5801F08D5BCF5801F3D
:102D8000F7D58B4218BF704708BF824270474FF497
:102D9000001C1CEB410F38BF1CEB430F01D28B42D0
:102DA000704770B500F0B2F8922449004FF000511E
:102DB0004FF08053FFF7F8BD70B5DFF848C11CEA4B
:102DC000111E1EBF1CEA13159EEA0C0F95EA0C0F8C
:102DD00000F06F8081EA03044EEAD47EAE4421EA1B
:102DE0004C1123EA4C1341F4801143F48013AEF1EB
:102DF0007F7EA1FB024CA0FB0365361955EB0C0549
:102E0000A1FB034C4CF10003A0FB021C16EB0C06CB
:102E1000654153F10003094218BF46F0010613F45F
:102E2000007F0BD14FEA03314FEA053041EA1551DB
:102E300040EA165034036FF003020AE04FEAC32160
:102E40004FEAC52041EA555140EA5650F4026FF06E
:102E5000020202EB2E4201EB025585EACE710AD046
:102E60005FEA440C18BF24F0004450F1000041F127
:102E7000000120EAD47040F2FE7C624500D270BDB1
:102E8000A84214BF4FF080444FF04044002E08BFCA
:102E90000024BEF1806FA8BFA1F1C041BDE8704021
:102EA00080F2828001F1C04101F000414FF000004A
:102EB00070470CEA13159EEA0C0F18BF95EA0C0F29
:102EC00006D081EA030E4FF000000EF0004170BD05
:102ED00000F01CF88900013E00F007B800F009B8C6
:102EE0004FEA430C5FEA5C5C08D081EA030100F022
:102EF0005BB84FEA410C5FEA5C5CF6D102494FF0E7
:102F0000000070470000FF070000F87F0EF1020E7E
:102F10002EF0030E5EF8046B364205D4012A43EB13
:102F2000030515F5001F12D8012841EB010C1CF513
:102F3000001F0CD80ED14FEAD17C0CEB4C0C0CF1DD
:102F4000020C15F5001F08BF4CEBD37C04E04FF0DA
:102F5000080C01E04FEAD37C0CEB4C0526FA05F691
:102F600006F00706B6F1040C06D20EEB860CBDE89F
:102F700070404CF0010C6047DFE80CF0090B0202D6
:102F80004FF00041A1F500214FF0000070BD19463F
:102F90001046012851EB010418BFD4F5001484BF7A
:102FA000002001F0004170BD0808A0F500114FEAB3
:102FB0003101704753EA010C17D41CF5801F58BF2C
:102FC000BCF5801F00F106808B4218BF704708BF18
:102FD0008242704707D713F5801F58BF11F5801F35
:102FE00019D48B4270479B4270471CF5801F08D54F
:102FF000BCF5801FF7D5994218BF704708BF9042B3
:1030000070474FF4001C1CEB430F38BF1CEB410F03
:1030100001D2994270470FB40CBC03BCFFF7C1BE8C
:1030200010B591EA030F81F000413FF515AC83F034
:10303000004300F0EFB800002DE9F04101F5801CDD
:10304000BCF5001FC0F2C3804FEA115C21EA0C51AD
:1030500041F480110CF1FD0C5FEA5C0C0CF5C07CB6
:1030600001D340004941890241EA905187023BA4C3
:103070008E0EA45D0A0C04FB04F602FB06F6C6F1F4
:103080004046A4FB0662F60D46EA422606FB06F41D
:10309000A4FB01235242C3F1404338BF5B1EA6FB91
:1030A00002420024E6FB0324D20B42EA4446A6FB7C
:1030B0000623A1FB02E2A3FB07E4A4184FF00002E1
:1030C00052F10002E3FB01426442C2F1404E38BFBC
:1030D000AEF1010EA6FB04234FF00002E6FB0E3218
:1030E000A2FB0346B6194FF0000454F10004E2FBC2
:1030F0000264A1FB06E6A4FB07E816EB08064FF006
:10310000000858F10008E4FB01687642C8F1405815
:1031100038BFA8F10108A2FB06E4A3FB08E52D19BE
:103120004FF0000454F10004E2FB0854A1FB05E653
:10313000A7FB04E818EB06084FF0000656F100065E
:10314000E1FB048618F1200556F10006A80940EAC3
:103150008660B109A8F11B0808F03F08B8F10A0F12
:103160001CD901EB0C51BDE8F08100BFFCF5EEE885
:10317000E2DDD8D3CFCBC7C3C0BDB9B6B4B1AEAC16
:10318000A9A7A5A3A19F9D9B9A9896959392908F8E
:103190008D8C8B898887868584838281A0FB0068DB
:1031A00000FB01F208EB4208B8EB872807D534187A
:1031B00058EB0104D5D5401C51F10001D1E7341A78
:1031C00078EB0104CDD4401E71F10001C9E75FEA3C
:1031D0004C0C5FEA9C5C0DD105D301F000414FF02F
:1031E0000000BDE8F081BDE8F04170B5FFF78EFE4C
:1031F0006DDBFFBEBDE8F04101494FF000007047B4
:103200000000F87F10B591EA030F48BF83F0004338
:103210003FF522AB841A71EB030C07D28CF0004C03
:10322000121943EB0C03001B61EB0C014FEA115424
:10323000A4EB135CDFF8A4E11EEA430F18BF9EEA7B
:10324000445F00F0B48021EA045123EA6E03524245
:10325000C3EB6E0338BF5B1EDCF1200E25D322FAD0
:103260000CFE10EB0E0043FA0CFE41EB0E01CCF10C
:10327000200E03FA0EFE10EB0E00CCF1200E51F1E1
:10328000000129D401EB045112FA0EF2BDE81040FE
:1032900058BF7047401C1CBFB2F1004F7047002858
:1032A0000CBF491C20F00100704712EB020E43EBEB
:1032B000030218BF4FF0010E4EEA4202ACF1200C9F
:1032C000DCF11E0E56D943FA0CFE10EB0E00CCF1C9
:1032D0001E0E51F1FF31D5D50EF1010E12FA0EFE80
:1032E000404141EB010101EB445C5FEA5C5C10D9B9
:1032F00001EB045110EBDE7038BFBEF1004FBDE8AA
:10330000104018BF704700280CBF491C20F0010076
:10331000704734D24FEAD42C24F4006411F5001124
:103320001BD0B1FA81F20B3AA41AA41ED2F12003E9
:10333000914030FA03F31943904001EBCC7101EB5B
:103340000451002CBDE81040A8BF704701F1C041F6
:1033500001F000414FF000007047B0FA80F310FA1E
:1033600003F102D1BDE810407047E41A173C48054C
:10337000C90AE2E701EB0451BDE81040704749106B
:103380004FEA300001EB0451BDE8104002E04FF07D
:10339000000170474A0008BF0042F8D0B2F5001F94
:1033A00028BF704701F000414FF0000070479EEACF
:1033B000445F07D011EA5E0FBDE8104004BF002152
:1033C00000207047BDE8104070B5FFF79FFD00BFBB
:1033D00040DFF63E104683F0004170470000E0FFFA
:1033E00043004FEAD30C4FEA3C0C43401FBF400759
:1033F0000CF1605113F0FE4F70471CF0006F03D1C9
:103400000CF00041002070470CF0004343EA50707C
:1034100040EACC0010B500F0D1F800BF00000092E7
:103420004FEA0001FFF7C0BD4FF00041A1F50021B8
:103430004FF00000704700004FF47F0C1CEAD012E0
:103440001EBF1CEAD11392EA0C0F93EA0C0F00F096
:10345000858090EA010F48BF42F4807240F4000C6E
:1034600041F400002CF07F4120F07F4000B5A2EB3A
:10347000030281420FF2081CACEB504E9EF800E0B4
:10348000C0F100004FEA4E0E00FB0EFC38BF4900B1
:103490004FEA2C1C0CFB0EF34FEACE1E0EEB635EC4
:1034A0004FEA112C0EFB0CFC4FEAC1214FEA1C53D2
:1034B00000FB031102F5FA024FEA112C0EFB0CFC83
:1034C0004FEA01314FEADC4C00FB0C1142EB224287
:1034D000C14228BF09184CEB03335DF804EB10EB35
:1034E000410143EBC250B2F57C0F38BF704729D57C
:1034F00012F0F00F1CBF00F1C04000F00040704718
:10350000008182838485868788898B8C8D8E8F91BC
:103510009293959697999A9C9D9FA0A2A3A5A7A8E0
:10352000AAACAEB0B2B3B5B7B9BCBEC0C2C5C7C90C
:10353000CCCED1D4D7D9DCDFE2E6E9ECF0F3F7FA70
:10354000FE0000004FEA400C0CF1807CBCF17E4F85
:1035500028BF7047B0F1C04000F076B80CEAD11334
:1035600090EA010F48BF42F48072624538BF63455C
:1035700007D213F47F0F16D080EA010000F000405C
:10358000704710B500F01AF8097EFC3E00F005B84F
:1035900080EA010000F00040704780EA010000F07E
:1035A000004000F051B812F47F0F04BF024870478A
:1035B00080EA010000F048B80000C07F0EF1020E62
:1035C0002EF0030E5EF8044B244204D44FEA41026D
:1035D000B2F17F4F11D84FEA4003B3F17F4F0CD8BF
:1035E0000ED14FEAD07C0CEB4C0C0CF1020CB2F17A
:1035F0007F4F08BF4CEBD17C04E04FF0080C01E09A
:103600004FEAD17C0CEB4C0324FA03F404F00704DA
:10361000B4F1040C06D20EEB840CBDE810404CF063
:10362000010C6047DFE80CF0070802024FF0004091
:10363000A0F5800010BD0846420018BFD2F180728C
:1036400088BF00F0004010BDFF2141EAD050C00506
:1036500070470CF00F03092B08BF082000F05980B9
:103660000A2B0BD0082B18BF704708BF1CF0400F67
:103670000AD04FF000004FF0000170471CF0400FDF
:1036800018BF4FF0004070471CF0100F08D000F03A
:103690007F4220F0704342EAD3014FEA4370704703
:1036A00000F0604021F07F4242EA000201F07F40DA
:1036B00040EA727070474FF0FF0C4CF4E06C1CEA6B
:1036C00011531CBF9CEA030C9445C2BFDA4201EBC4
:1036D00002517047002B0DD0BCF1000F0FD001F04C
:1036E0000041002AA4BF41F0E04141F07F614FF06A
:1036F0000000704701F000414FF00000704750EAB1
:1037000001334FF09B0C18BF4CF0806C7FF444A940
:1037100070471CF4801F11D01CF4E02F03D06FEA17
:10372000CC31490070474FF04050EFF3008222F057
:10373000704242EA000282F3008870474FF00000B6
:103740007047000000000000000000000000F03F93
:10375000000000000000F83F000000000000000032
:103760000000004003B8E23F00000000000000003D
:1037700006D0CF43EBFD4C3E033333333333E33FCB
:10378000FFAB6FDBB66DDB3F4D268F515555D53FF7
:1037900001411DA96074D13F65DBC9934A86CD3FC5
:1037A000EF4E454A287ECA3F3E5555555555C53FB3
:1037B00093BDBE166CC166BF2CDE25AF6A56113FA5
:1037C000F16BD2C541BDBBBED0A4BE726937663EA7
:1037D00004FA97999999D93FAF788E1DC571CC3F5E
:1037E0009FC678D0099AC33F935555555555E53F27
:1037F000599322942449D23FDE03CB966446C73FB7
:1038000044523EDF12F1C23F000000000000000001
:103810000000000000000000010203040607080980
:103820000000000001020304010202030405060770
:1038300008090A0B0C0D0E0F10100000603800086C
:103840000000002010000000280100087038000867
:1038500010000020C0060000440100080000000025
:1038600001000000100000000024F400000000002F
:04000005080000ED02
:00000001FF
